:020000040800F2
:10000000606A00209D0100089F2300080D1F000862
:100010009D23000855030008312A00080000000055
:100020000000000000000000000000002125000882
:100030001D04000800000000A1230008232500087B
:10004000B7010008B7010008B7010008B7010008B0
:10005000B7010008B7010008B7010008B7010008A0
:10006000B7010008B7010008B7010008B701000890
:1000700059030008B701000865030008B70100082C
:10008000710300087D030008B7010008B7010008EC
:10009000B7010008B7010008B7010008B701000860
:1000A000B7010008B7010008B7010008B701000850
:1000B00005260008112600081D260008B7010008C3
:1000C000B7010008B7010008B7010008B701000830
:1000D000B7010008B7010008192A0008252A0008FE
:1000E000B7010008B7010008B7010008B701000810
:1000F000B7010008B7010008B7010008B701000800
:10010000B7010008B701000829260008B701000858
:10011000B7010008B7010008B7010008B7010008DF
:1001200089030008B7010008B7010008950300081B
:10013000B7010008B7010008B7010008B7010008BF
:10014000B7010008B7010008B7010008B7010008AF
:10015000B7010008B7010008B7010008B70100089F
:10016000B7010008B7010008B7010008B70100088F
:10017000B7010008B7010008B7010008000000003F
:10018000B7010008B7010008DFF80CD000F08CF8C8
:100190000048004779350008606A0020064880471B
:1001A00006480047FEE7FEE7FEE7FEE7FEE7FEE75C
:1001B000FEE7FEE7FEE7FEE7B1250008890100083B
:1001C0002DE9F05F0546002092469B46884606468C
:1001D000814640241BE0284641464746224600F01F
:1001E00053F853465A46C01A914110D31146184647
:1001F000224600F03AF82D1A67EB01084F462246D6
:100200000120002100F031F817EB00094E41201EBB
:10021000A4F10104DFDC484631462A464346BDE8E6
:10022000F09F40EA01039B0703D009E008C9121FB1
:1002300008C0042AFAD203E011F8013B00F8013BA0
:10024000521EF9D27047D2B201E000F8012B491ECC
:10025000FBD270470022F6E710B513460A46044663
:100260001946FFF7F0FF204610BD202A04DB203A94
:1002700000FA02F1002070479140C2F1200320FAF9
:1002800003F3194390407047202A04DB203A21FAF7
:1002900002F00021704721FA02F3D040C2F120029F
:1002A0009140084319467047064C074D06E0E06848
:1002B00040F0010394E8070098471034AC42F6D3AD
:1002C000FFF766FFB8400008D84000080BA001689F
:1002D0000B48C0F801100121017041F68271C18004
:1002E000018100F50051002200F58050CA81428151
:1002F0004FF4805282810A8270470000C0A8010B2F
:100300003446002041F69071014800F089B80000A1
:100310003406002010B50E4A02EB4004486814F879
:10032000012C14F9023C09899A4201DC012200E007
:10033000002200F0F4FA14F8010C642802D3002023
:1003400004F8010CC0B2401C04F8010C10BD000000
:1003500000000020FEE70000014800F0B1B80000F6
:1003600064050020014800F0ABB80000C40500207F
:10037000014800F0A5B80000A4040020014800F0E6
:100380009FB8000004050020014800F099B8000063
:1003900064010020014800F093B80000C40100206F
:1003A00001681823CAB2103AB2FBF3F2054B6FF39F
:1003B0000901032A9B5CC36500D9091D81650846B4
:1003C000704700007C40000810B5014600208B6992
:1003D0008A6A4FF0C07453B1B3F5005F15D072B1A3
:1003E000012A0CD0022A0AD0032A09D104E01AB14A
:1003F000012A06D0022A03D1C96AC90100D5012009
:1004000010BDC96AA142FAD010BD002AF7D0012A56
:10041000F2D0022AF3D0032AF3D010BD7047704700
:10042000FEB505460C4600264FF4427002F02AFC49
:1004300048B322282FD1304603F052F802002AD0C8
:100440004FF48040824200D9024602A8009001ABDE
:100450002946304603F0D4F800281DDD87B2002479
:100460000EE000BFBDF808000090381B82B22919C9
:1004700001AB304603F01EFA00280DDB204484B2A5
:10048000BC42EFD107E0002322460221304603F0B0
:10049000D1FA002800D10120FEBD90F835100229C4
:1004A00003D08021416501207047052180F8351077
:1004B0000068016821F00101016000207047000020
:1004C0002DE9F84304464FF00009CDF80090634849
:1004D0004FF41651A56D0068B0FBF1F72E6894F843
:1004E0005C10082000FA01F131420FD021680A683F
:1004F00052070BD50A6822F004020A6094F85C10D7
:100500008840A860606D40F00100606594F85C1060
:100510004FF0010808FA01F0304208D0216849691B
:10052000090604D5A860606D40F00200606594F88B
:100530005C1004208840304208D02168096889078F
:1005400004D5A860606D40F00400606594F85C100C
:1005500010208840304218D021680968090714D556
:10056000A86020680168490304D50068000308D525
:10057000A16C07E00168C90503D4016821F00801F6
:100580000160216C09B12046884794F85C10202056
:100590008840304231D021680968C9062DD5A8604D
:1005A00094F8350005282068016806D0490347D52E
:1005B000006800031DD4616C1CE021F0160101608D
:1005C0002068416921F080014161206C08B9A06C6C
:1005D00020B12068016821F00801016094F85C10E6
:1005E0003F208840A86084F8349084F83580216DDD
:1005F0001FE0E16B09B120468847606D00282BD0D1
:10060000606DC00714D0052084F8350020680168AB
:1006100021F0010101600098401C0090B84203D80D
:1006200020680068C007F6D184F8349084F83580DB
:10063000E16C002910D001B02046BDE8F043084726
:100640000168C905D5D4016821F01001016084F862
:10065000349084F83580CCE7BDE8F883680000204A
:100660002DE9F041044600F05FF906465CB1002533
:1006700084F83450022084F835002068016821F0A5
:10068000010101600DE00120BDE8F08100F04CF9AE
:10069000801B052805D920206065032084F83500DB
:1006A000F2E720680068C007F0D12268116820488E
:1006B0000140D4E901031843D4E903363343184316
:1006C00063691843A3691843E3691843236A18430D
:1006D0000843616A042903D1D4E90B131943084381
:1006E000106020684069666A20F0070130460E43BA
:1006F000012704280CD1A06A0643E06A40B12046D5
:10070000FFF762FE20B14020606584F83570BAE7DB
:10071000206846612046FFF743FE94F85C203F21A5
:1007200091408160656584F835700020ACE7000079
:100730003F8010F070B5044600F0F6F80546601CE6
:1007400002D004480078044400F0EEF8401BA042B8
:10075000FAD370BD5C0000202DE9F84F00224FF065
:10076000010803254FF00F0E0B6808FA02F423402E
:10077000A3426ED14E68012E05D0022E03D0112E59
:1007800001D0122E12D186684FEA420C05FA0CF7FE
:10079000BE43CF6807FA0CF7374387604668A64325
:1007A0000C79C4F30014944034434460C668570085
:1007B00005FA07FC8C6826EA0C06BC403443C4608A
:1007C0004C68022C01D0122C13D1D40800EB840405
:1007D000A346D4F8209054074FEAD46A0EFA0AF6DA
:1007E00029EA06090E6906FA0AF646EA0906CBF86E
:1007F000206006680C7926EA0C0604F00304BC406D
:10080000344304604C68E40065D5364C266846F4F1
:1008100080462660246822F0030604F48044009495
:10082000314C3444A446D4F808489607370F0EFAE2
:1008300007F6B4432D4EB04201D1002624E02C4EE1
:10084000B04201D101261FE02A4EB04202D1022659
:100850001AE040E0284EB04201D1032614E0274EB2
:10086000B04201D104260FE0254EB04201D1052649
:100870000AE0244EB04201D1062605E0224EB042E5
:1008800001D1072600E00826BE402643CCF80868C0
:100890001E4E34684F689C43FF0300D51C433460F0
:1008A0001A4C241D26684F689E43BF0300D51E4383
:1008B0002660164E083634684F689C43FF0200D508
:1008C0001C433460114E0C3634684F689C43BF02A1
:1008D00000D51C433460521C102AFFF445AFBDE81C
:1008E000F88F000044380240003001400000024010
:1008F0000004024000080240000C024000100240C8
:100900000014024000180240001C0240003C01405C
:10091000426931EA020200D10904816170470AB1DB
:10092000816170470904FBE7014880687047000057
:100930005C000020024881680278114481607047A1
:100940005C0000200B4810B5016841F400710160A3
:10095000016841F480610160016841F480710160C7
:10096000032000F06FF8002000F006F800F024F8F3
:10097000002010BD003C024070B50D4D04464FF400
:100980007A712878B1FBF0F00A490968B1FBF0F000
:1009900000F019FE48B9102C07D200222146501E43
:1009A00000F030F800206C6070BD012070BD0000C8
:1009B0005C000020680000200A4808B5016841F486
:1009C00080410160006800F4804000900548001FED
:1009D000016841F080510160006800F08050009093
:1009E00008BD000044380240002809DB00F01F0267
:1009F000012191404009800000F1E020C0F8001181
:100A000070470000F0B40E4B1B680C46C3F3022382
:100A1000C3F10705042D00D90425191D072901D2AA
:100A2000002300E0DB1E012606FA05F1491E2140E5
:100A300099409E40761E16403143F0BC02F000BA49
:100A40000CED00E0064900F0070208684FF6FF03CE
:100A5000184040EA0220034A104308607047000033
:100A60000CED00E00000FA052DE9F0470E46050008
:100A700065D0DFF81481D8F80000F7B200F00F005D
:100A8000B04207D288F80070D8F8000000F00F00DC
:100A9000B04254D128683D4C810712D5400703D598
:100AA000206840F4E05020602878000703D52068D3
:100AB00040F4604020602068A96820F0F0000843FE
:100AC00020602878C0072DD030496868083901288F
:100AD00012D0022813D0032811D0096889070029F1
:100AE0002DDA216821F0030101432160FFF71CFF8B
:100AF000814641F2883A0EE009688903EFE7096808
:100B00008901ECE7FFF710FFA0EB0901514502D97D
:100B10000320BDE8F0872068696800F00C00B0EBA6
:100B2000810FEFD1D8F80010404601F00F01B1421B
:100B300007D90770006800F00F00B04201D0012013
:100B4000E7E72878400705D52068E96820F4E050F9
:100B5000084320602878000706D52068296920F41A
:100B6000604040EAC100206000F038F82168084A7F
:100B7000C1F30311515CC84006490860064800688B
:100B8000FFF7FAFE0020C4E7003C024008380240AC
:100B900084400008680000206000002004480549E7
:100BA00000680968044AC1F38221515CC84070475B
:100BB00068000020083802409440000804480549B5
:100BC00000680968044AC1F34231515CC84070476B
:100BD000680000200838024094400008154810B50D
:100BE000006810F00C02144813D01449042A0FD0E6
:100BF000082A0ED10F4C241F2268236802F03F02FE
:100C00005B0207D52068C0F38810A0FB010106E055
:100C1000084610BD2168C1F38811A1FB0001002323
:100C2000FFF7CEFA2168C1F30141491C4900B0FB2E
:100C3000F1F010BD083802400024F40040787D0136
:100C40002DE9F84F04006ED02078DFF83C93C00700
:100C5000A9F104054AD009F104000168C1F381013A
:100C6000012908D00068C0F3810002280AD1D9F810
:100C70000000400206D52868800337D56068002848
:100C8000E1D033E06068B0F5803F10D0B0F5A02F20
:100C9000286810D020F480302860286820F4802054
:100CA00028606068A8B1FFF73FFE06460DE028689F
:100CB00040F48030F4E740F480202860F7E700BF7C
:100CC000FFF732FE801B642873D828688003F7D5AD
:100CD0000CE0FFF729FE064605E000BFFFF724FE03
:100CE000801B6428F0D828688003F7D42078DFF8C8
:100CF0009C8280074FF0000A3ED5A348001D016882
:100D000011F00C0F08D00068C0F3810002280BD14D
:100D1000D9F80000400207D42868800716D5E0689B
:100D2000012800D112E02BE1E068B8B10120C8F839
:100D30000000FFF7F9FD064605E000BFFFF7F4FDF0
:100D4000801B0228C0D828688007F7D52868216949
:100D500020F0F80040EAC10028600DE0C8F800A0CB
:100D6000FFF7E2FD064604E0FFF7DEFD801B0228E8
:100D70001FD828688007F7D42078000722D5824E34
:100D800083486169703671B101210160FFF7CCFDC4
:100D9000074604E0FFF7C8FDC01B022809D83068E9
:100DA0008007F7D50EE0C0F800A0FFF7BDFD0746AD
:100DB00005E082E0FFF7B8FDC01B02287DD830684F
:100DC0008007F7D42078400768D5DFF8BCB100274A
:100DD0000BF13C0BDBF80000C0000BD4DBF800107B
:100DE00041F08051CBF80010DBF80000012700F043
:100DF00080500090674E3068C00510D4306840F4D1
:100E000080703060FFF790FD009005E0FFF78CFDEB
:100E10000099401A022850D83068C005F6D55A4EBD
:100E2000A0686C3601280FD00528306810D020F05B
:100E300001003060306820F004003060A068B8B174
:100E4000FFF772FD00900FE0306840F00100F4E71A
:100E500040F004003060F7E7FFF766FD0099411AA3
:100E600041F28830814266D830688007F4D50EE0C0
:100E7000FFF75AFD009007E0FFF756FD0099411A71
:100E800041F28830814256D830688007F4D42FB1BF
:100E9000DBF8001021F08051CBF80010A069C8B336
:100EA0003949091D0968C1F3810102294AD0022884
:100EB000504607D0C8F8600000E03CE0FFF734FD82
:100EC00004463BE04746C8F86000FFF72DFD0646A4
:100ED00005E000BFFFF728FD801B02282BD82868FB
:100EE0008001F7D4D4E907010843A16A2A4A4908D6
:100EF00002EB0141626A41EA8211084394F82C1026
:100F000040EA0161C9F8001001203866FFF70CFDC6
:100F1000044606E036E000BFFFF706FD001B02288E
:100F200009D828688001F7D52CE000BFFFF7FCFC4A
:100F3000001B022802D90320BDE8F88F2868800131
:100F4000F4D41FE00128F7D0D9F80000E26900F4DA
:100F50008001914214D1226A00F03F0191420FD1E9
:100F600047F6C071626A0140914209D1A26A00F459
:100F70004031914204D1E16A00F07060884201D0B2
:100F80000120D9E70020D7E704380240000047429B
:100F9000800E4742007000400000FFFF70B5040063
:100FA00005D00025A56294F8510010B106E001209B
:100FB00070BD84F85050204600F030F8022084F8CC
:100FC00051002068016821F040010160D4E901016D
:100FD0000843D4E903121143084361690843218B94
:100FE00001F400710843E1690843216A0843A16ADA
:100FF000084321680860A069042101EA1040616A81
:101000000843216848602068C16921F40061C1611A
:101010006565012084F85100002070BD2DE9F04184
:1010200086B0064614216846FFF714F93B4F316835
:101030003B480222032305250024B9424DD13849FB
:1010400014310F6847F480570F60096801F480512C
:101050000591016841F0010101600068694600F0F6
:1010600001000590E0208DE81500CDE903352D48FD
:10107000FFF772FB2D4D2C484FF0C0682860C5E982
:1010800001840715C5E903476C61B801AC61C5E986
:10109000074028466C62FFF7E3FA08B1FFF7BFF993
:1010A000F564AE63214D204860354830E5E802081C
:1010B000402091C5C00245F81449AC61C5E907401C
:1010C0001A486C626030FFF7CBFA08B1FFF7A7F956
:1010D000B564AE6306B0BDE8F081154EB142F9D1FA
:1010E0000F4910310E6846F480460E60096801F41D
:1010F00080410591016841F0020101600068694684
:1011000000F0020005904FF460408DE81500CDE935
:1011100003350848FFF720FBDCE700000030014002
:101120003038024000000240106402406401002098
:1011300000380040000402402DE9F84F04464068A2
:101140000025984616460F464FF0040BB0F5827FF7
:1011500001D1A06888B194F85000012818D001206E
:1011600084F85000FFF7E0FB814694F851004FF0FF
:10117000000A01280ED002257DE084F851B0134604
:101180000A462046CDF8008000F02CF9BDE8F88F23
:101190000220FBE7002F6DD0002E6BD084F851B0F9
:1011A000C4F854A0A763A687E687C4F830A0A4F8C3
:1011B00034A0A4F836A0C4F840A0C4F844A0A068A5
:1011C000B0F5004F04D12068016821F4804101602E
:1011D00020680168490603D4016841F040010160BC
:1011E000E068D8B139E020688168C90709D0007B80
:1011F000A16B0870A06B401CA063E08F401EE087CD
:101200000CE0FFF791FBA0EB0901414503D3B8F1D6
:10121000FF3F03D036E0B8F1000F33D0E08F002855
:10122000E1D11DE020688168C90709D0C068A16BC1
:101230000880A06B801CA063E08F401EE0870CE05C
:10124000FFF772FBA0EB0901414503D3B8F1FF3F63
:1012500003D017E0B8F1000F14D0E08F0028E1D1DF
:101260004A464146204601F0B7F808B120206065A3
:10127000606D00B10125012084F8510084F850A070
:10128000284683E70325F6E72DE9F84F044690F852
:10129000500000271D461646894601280DD04FF004
:1012A000010B84F850B0FFF73FFB804694F85100E3
:1012B000BA46012804D002278EE00220BDE8F88F4C
:1012C000B9F1000F7DD0002E7BD0032084F85100AF
:1012D000C4F854A0C4F83090A686E686C4F838A0B6
:1012E000A4F83CA0A4F83EA0C4F844A0C4F840A0D0
:1012F000A068B0F5004F04D12068016841F4804136
:10130000016020680168490603D4016841F040018A
:101310000160E068B0F5006F606803D030B3012E63
:1013200024D040E008B1012E1CD1206B2168008838
:10133000C86006E020688168890709D5216B0988A3
:10134000C160206B801C2063E08E401EE08609E0B7
:10135000FFF7EAFAA0EB0800A84202D3681C01D00C
:1013600031E07DB3E08E0028E4D11FE0206B2168DE
:101370000078087306E020688168890709D5216B29
:1013800009780173206B401C2063E08E401EE086CC
:1013900009E0FFF7C9FAA0EB0800A84202D3681CD5
:1013A00001D010E075B1E08E0028E4D14246294614
:1013B000204601F03FF808B120206065A06820B108
:1013C00007E008E0FFE7032706E02068C1688068BF
:1013D0000090606D00B1012784F851B084F850A0EE
:1013E00038466BE72DE9F84F044690F85000002787
:1013F0000A9E1D4692468B464FF0010901280ED0E9
:10140000012084F85000FFF78FFA804694F85100CD
:10141000616801280CD0B1F5827F07D102E002207B
:10142000BDE8F88FA16809B9042801D00227C2E0FD
:10143000BBF1000F27D0BAF1000F24D01DB394F8F0
:101440005100042802D0052084F851000020606576
:10145000C4F838A0E587A587C4F830B0E586A5862E
:101460002064606420680168490603D4016841F083
:1014700040010160E068B0F5006F606805D0E8B336
:10148000012D46D07FE0012795E008B1012D39D12B
:10149000206B21680088C860206B801C2063E08E70
:1014A000401EE0862EE02068816889070FD5E18E16
:1014B00069B1B9F1010F0AD1216B0988C160206BB4
:1014C000801C2063E08E401EE0864FF000092068FB
:1014D0008168C9070CD0E18F51B1C068A16B088049
:1014E000A06B801CA063E08F401EE0874FF00109D5
:1014F000FFF71AFAA0EB0800B04200E009E001D3C0
:10150000701C50D1E08E0028CDD1E08F0028CAD1C8
:101510003FE0206B216800780873206B401C20633B
:10152000E08E401EE0862EE02068816889070FD596
:10153000E18E69B1B9F1010F0AD1216B097801730C
:10154000206B401C2063E08E401EE0864FF00009B7
:1015500020688168C9070CD0E18F51B1C068A16BC8
:101560000870A06B401CA063E08F401EE0874FF026
:101570000109FFF7D9F9A0EB0800B04202D3701CB3
:1015800001D010E07EB1E08E0028CDD1E08F0028A0
:10159000CAD142463146204600F04CFF28B101270F
:1015A0002020606507E0032705E0A06818B92068DF
:1015B000C16880680090012084F85100002084F800
:1015C000500038462CE710B5401EB0F1807F01D3A3
:1015D000012010BD4FF0E02460610F21601701F081
:1015E0002FFC0020A06107202061002010BD704763
:1015F0007047000070B590F83C20012A32D00124D9
:1016000080F83C40022280F83D2003685A689D68BB
:1016100022F070060A6832435A60134B02689A42FD
:1016200014D0B2F1804F11D0104B9A420ED0104B13
:101630009A420BD00F4B9A4208D00F4B9A4205D0DA
:101640000E4B9A4202D00E4B9A4204D1496825F0C3
:1016500080031943916080F83D40002180F83C10E0
:10166000084670BD022070BD00000140000400402B
:1016700000080040000C0040000401400040014010
:101680000018004010B5040003D094F83D0010B1DC
:1016900007E0012010BD002084F83C00204600F047
:1016A0000DF8022084F83D00211D206800F0C2FFE3
:1016B000012084F83D00002010BD000008B501683D
:1016C0002648B1F1804F11D0254A91421DD10168C1
:1016D00041F0020101600068002200F00200009069
:1016E00011461D20FFF78EF91D2031E0016841F001
:1016F000010101600068002200F001000090114625
:101700001C20FFF77FF91C2022E0164A91420ED1DF
:10171000016841F0040101600068002200F004004B
:10172000009011461E20FFF76DF91E2010E00E4AB2
:10173000914211D1016841F0080101600068002266
:1017400000F00800009011463220FFF75BF93220CC
:10175000BDE80840FFF748B908BD00004038024026
:101760000004004000080040000C00400168CA6806
:1017700042F00102CA600068816801F00701062991
:1017800003D0016841F0010101600020704770B58D
:10179000044690F83C00012817D0012584F83C50FD
:1017A000022084F83D002068826822F0770222F44B
:1017B0007F4282600868502830D00DDC20284DD050
:1017C00005DC98B310283BD148E0022070BD3028DA
:1017D00044D0402834D139E0602828D0702806D081
:1017E000B0F5805F2CD0B0F5005F29D10AE0CB685E
:1017F000D1E90121206800F081FF2068816841F073
:10180000770109E0CB68D1E90121206800F076FF7B
:101810002068816841F48041816011E0CA684968AC
:10182000206800F07DFF5021206807E016E0CA68BC
:101830004968206800F085FF6021206800F068FF9B
:1018400084F83D50002084F83C0070BDCA684968A7
:10185000206800F065FF40212068EFE7226801461C
:101860001046EBE7704770B50446006801694FF019
:101870000005C943890715D4C168C943890711D434
:10188000E91E0161012020772068806980072046D9
:1018900002D0FFF7E7FF04E000F098F8204600F0E0
:1018A00096F8257720680169C943490717D4C168AC
:1018B000C943490713D46FF0040101610220207766
:1018C0002068806910F4407F204602D0FFF7CAFFED
:1018D00004E000F07BF8204600F079F825772068D6
:1018E0000169C943090716D4C168C943090712D45D
:1018F0006FF008010161042020772068C06980072B
:10190000204602D0FFF7AEFF04E000F05FF820466B
:1019100000F05DF8257720680169C943C90617D42E
:10192000C168C943C90613D46FF0100101610820D2
:1019300020772068C06910F4407F204602D0FFF76E
:1019400091FF04E000F042F8204600F040F82577CF
:1019500020680169C943C90708D1C168C943C907DB
:1019600004D1891E0161204600F032F82068016927
:10197000C943090609D4C168C943090605D46FF0F3
:10198000800101612046FFF732FE20680169C943EA
:10199000490609D4C168C943490605D46FF040011E
:1019A0000161204600F03AF820680169C9438906C0
:1019B0000BD4C168C943890607D46FF020010161C7
:1019C0002046BDE87040FFF713BE70BD70477047FA
:1019D0000068B0F1804F05D00C49884206D10C490F
:1019E000022010E00A49143901200CE0094988421C
:1019F00003D107491431032005E00749884204D187
:101A0000034928310420FEF785BC704700040040DC
:101A10001C00002000080040000C00407047704788
:101A200010F8391F407808437047000070B502680D
:101A300004461068D168536910F00F0F53D003F0BB
:101A4000010501F490762E435FD0C20705D0CA0588
:101A500003D5E26B42F00102E263420705D5DA07E3
:101A600003D0E26B42F00202E263820705D5DA0797
:101A700003D0E26B42F00402E263020707D501F0F3
:101A800020022A4303D0E26B42F00802E263E26BD9
:101A9000002A34D0800604D5880602D5204600F0FE
:101AA00078FE20684069E16BC0F3801001F0080106
:101AB0000143204624D000F05EFE206841694906BB
:101AC0001AD5416921F040014161606BA0B11B4909
:101AD0000165606BFEF7E1FC002810D0606B016DC2
:101AE000BDE87040084783060FD58B060DD520460C
:101AF000BDE8704000F04DBE2046FFF790FF70BD7E
:101B0000FFF78DFF0020E06370BD030606D50B06CE
:101B100004D52046BDE8704000F01ABF4006F3D55A
:101B20004806F1D5D168204621F04001D16020213E
:101B300084F8391000F0E9F970BD0000672700084B
:101B400070B5040004D094F83900002510B106E007
:101B5000012070BD84F83850204600F023F824207E
:101B600084F839002068C16821F40051C160204622
:101B700000F05AFE2068016921F49041016120685B
:101B8000416921F02A0141612068C16841F4005196
:101B9000C160E563202084F8390084F83A00002011
:101BA00070BD00002DE9F04F87B00446142168464F
:101BB000FEF750FB5E485E49DFF87081D4F800C044
:101BC0001039022203230726002547054FF4806AB7
:101BD0004FF4803BC44550D1D0F800C04CF4003CD9
:101BE000C0F800C0006800F400300590086840F0BC
:101BF000080008600868694600F008000590602049
:101C00008DE82500CDE903364A48FEF7A5FD4B4E89
:101C10004948B9463060C6E90175C6E9035A75619D
:101C2000B561C6E9075BD0465F4630467562FEF790
:101C300017FD08B1FEF7F3FB6663B4633F4E3E4801
:101C400060361830E6E802094020A6E821013B484A
:101C500046F814596030B561C6E907577562FEF75A
:101C6000FFFC08B1FEF7DBFB2663002211462620AD
:101C7000B463FEF7C7FE262053E0DFF8C480C445F6
:101C800051D1D0F800C04CF4802CC0F800C00068DE
:101C900000F480200590086840F0020008600868A1
:101CA000694600F0020005904FF440608DE8250081
:101CB000CDE903362348FEF74FFD204E1E48C036BF
:101CC00060383060C6E90175C6E9035A7561B561CF
:101CD000C6E9075BD146D84630467562FEF7C0FCC0
:101CE00008B1FEF79CFB6663B4631348164E3038A8
:101CF000E6E802074020A6E82102134846F81459F6
:101D0000B561C6E907587562FEF7AAFC08B1FEF78F
:101D100086FB2663002211462720B463FEF772FE7D
:101D20002720FEF761FE07B0BDE8F08F00440040B9
:101D300040380240000C024088600240A4040020A9
:101D40000048004000040240C405002090F83A30EA
:101D5000202B22D1F9B1F2B190F83830012B1CD0F0
:101D600081628285C2850021C163222280F83A20E7
:101D700080F838100168CA6842F48072CA6001684D
:101D80004A6942F001024A610068C16841F02001DD
:101D9000C16000207047012070470220704700009A
:101DA0002DE9F0412449884243D1012223492248A8
:101DB000FFF7CCFF214C0025641E4FF4807620787D
:101DC0004FF6FF77FF280CD3257031461C48FEF7ED
:101DD00041FA3B46BDE8F0410A221AA1164800F03C
:101DE00037B86078A0F13001092901D801F0B0FEC0
:101DF0001348217862784254491CCAB210442270B8
:101E000010F8011C0A2914D110F8020C0D2810D169
:101E10003B460B49084800F01BF80748FFF700FE57
:101E20002128FAD025703146BDE8F0410448FEF77C
:101E300011BABDE8F0810000240400205900002000
:101E400024030020CAFDBEDDD2E7B3F60000000087
:101E50002DE9F843044690F839001F4616460D4612
:101E6000202850D1B5B1AEB194F8380001284AD03D
:101E7000012084F838004FF00008C4F83C8021208D
:101E800084F83900FEF750FDA6848146E68484F884
:101E9000388026E00120BDE8F883E08C401EE08415
:101EA000A0684B46B0F5805F4FF000024FF0800114
:101EB0002046009703D000F07CFDE8B90DE000F06B
:101EC00078FDC8B928882168C0F3080048602069F7
:101ED00008B16D1C05E0AD1C03E0216815F8010B8D
:101EE0004860E08C0028D8D14B4600224021204693
:101EF000009700F05EFD08B10320CCE7202084F8B5
:101F000039000020C7E70220C5E77047FEE7000060
:101F1000214808B5016841F480010160016801F4BD
:101F200080010091016841F4001101600068002205
:101F300000F40010009011460C20FEF763FD0C2009
:101F4000FEF752FD002211460E20FEF75BFD0E202B
:101F5000FEF74AFD002211461020FEF753FD102027
:101F6000FEF742FD002211461120FEF74BFD112025
:101F7000FEF73AFD002211463820FEF743FD3820D7
:101F8000FEF732FD002211463B20FEF73BFDBDE887
:101F900008403B20FEF728BD303802402DE9F047CD
:101FA00086B014216846FEF755F9554800240168AB
:101FB00041F010010160016801F010010591016814
:101FC00041F080010160016801F080010591016824
:101FD00041F001010160016801F001010591016812
:101FE00041F002010160016801F002010591016800
:101FF00041F008010160016801F0080105910168E4
:1020000041F0400101600068DFF8F88000F0400016
:10201000059000224FF484614046FEF780FC3A4F61
:1020200001220C213846FEF77AFC002210213846A6
:10203000FEF775FCDFF8D4A000224FF4845150461F
:10204000FEF76DFCDFF8C89000224FF4704148465F
:10205000FEF765FC202000900125CDE9015469467A
:1020600040460394FEF778FB0C20CDE90005CDE94E
:10207000025469463846FEF76FFB02201026CDE970
:102080000204CDE9006569463846FEF765FBA80203
:10209000CDE90005CDE9025469464046FEF75CFBF8
:1020A0002803CDE90005CDE9025469465046FEF704
:1020B00053FB4FF4E040CDE90005CDE902546946F9
:1020C0004846FEF749FBE8030090CDE90154694614
:1020D00048460394FEF740FBCDE90064694650464C
:1020E0000294FEF739FB80200090CDE90154694647
:1020F00050460394FEF730FB06B0BDE8F0870000C1
:10210000303802400010024000000240000402404B
:10211000001802400F4810B50D4901604FF482715C
:10212000416000218160C1604FF400720161C0E92B
:102130000512C1610162416281620A21C162FEF73A
:102140002DFF002803D0BDE81040FEF768B910BD90
:1021500000300140B40000200F4810B50D49016067
:102160004FF48271416000218160C1604FF40072C0
:102170000161C0E90512C1610162416281620A2107
:10218000C162FEF70BFF002803D0BDE81040FEF748
:1021900046B910BD003800400C01002010B586B0D3
:1021A00000241648009401940294039404944FF080
:1021B0008041059401605321C0E901146321C0E905
:1021C00003148461FFF75EFA08B1FEF728F94FF4B3
:1021D0008050009069460948FFF7D9FA08B1FEF728
:1021E0001EF9049404A905480594FFF703FA002892
:1021F00001D0FEF714F906B010BD00002402002043
:1022000010B586B0002416480094019402940394FB
:1022100004941249059401605321C0E9011463211B
:10222000C0E903148461FFF72DFA08B1FEF7F7F84F
:102230004FF48050009069460948FFF7A8FA08B1AA
:10224000FEF7EDF8049404A905480594FFF7D2F9C8
:10225000002801D0FEF7E3F806B010BD00040040EE
:102260006402002010B586B0002416480094019442
:102270000294039404941249059401605321C0E927
:1022800001146321C0E903148461FFF7FBF908B16D
:10229000FEF7C5F84FF48050009069460948FFF7F3
:1022A00076FA08B1FEF7BBF8049404A90548059432
:1022B000FFF7A0F9002801D0FEF7B1F806B010BD75
:1022C00000080040A402002010B586B00024164883
:1022D00000940194029403940494124905940160BB
:1022E0005321C0E901146321C0E903148461FFF79D
:1022F000C9F908B1FEF793F84FF480500090694691
:102300000948FFF744FA08B1FEF789F8049404A9D4
:1023100005480594FFF76EF9002801D0FEF77FF815
:1023200006B010BD000C0040E40200200C4810B5BF
:102330000A4901604FF4E1314160002181600C22C3
:10234000C160C0E904128161C161FFF7F9FB002897
:1023500003D0BDE81040FEF762B810BD0044004055
:10236000240400200C4810B50A4901604FF4E13103
:102370004160002181600C22C160C0E904128161CA
:10238000C161FFF7DDFB002803D0BDE81040FEF778
:1023900046B810BD0048004064040020FEE77047C6
:1023A000704700000B4910B50A68136823F040031A
:1023B00013600A6813684FF6C774234013600A68F5
:1023C0001368034313600868016841F0400101602D
:1023D00010BD0000B4000020F8B5044640684FF47A
:1023E0008273984221D1A0684FF48065B0F5004F08
:1023F00001D0A8420AD12068066826F0400606608F
:102400006068984211D1A068A8420ED000920B4695
:1024100000228021204600F039F8002804D0606DA9
:1024200040F0200060650320F8BD00920B460022BA
:102430000121EFE738B504461248134B0068B0FBA2
:10244000F3F04FF47A73584300906068B0F5827FE0
:102450000DD10B46009200228021204600F016F894
:1024600070B1606D40F020006065032038BD0098B9
:1024700030B1401E009020688068C0430006F6D549
:10248000002038BD6800002000366E012DE9F041C3
:102490001D4617460E460446DDF8188008E0681C05
:1024A00006D0FEF741FAA0EB0800A8420BD255B1C6
:1024B0002068806836EA000030D00020B842EED1B3
:1024C0000020BDE8F0812068416821F0E001416012
:1024D0006068B0F5827F0BD1A068B0F5004F02D0E4
:1024E000B0F5806F04D12068016821F040010160DF
:1024F000A06AB0F5005F09D12068016821F400519D
:1025000001602068016841F400510160012084F8F5
:102510005100002084F850000320D2E70120CDE7CD
:102520007047FEF707BA000030B593B03021684617
:10253000FDF790FE14210CA8FDF78CFE1A4800252B
:10254000016841F080510160006800F080501190F6
:102550001648016841F4804101600068022400F4DB
:102560008040119001200090000401908001CDE98D
:102570000640192008904FF4A870CDE90904042002
:102580000B906846FEF75CFB0CA90F2081E8310038
:102590004FF4A0500F90E002109005210CA8FEF718
:1025A00063FA13B030BD00004038024000700040B4
:1025B0001048016841F4700101600F48016841F062
:1025C000010101600C4A00210832116002680B4BC6
:1025D0001A400260031D0A4A1A60026822F480222F
:1025E000026005480C3001600249580680390860D5
:1025F0007047000088ED00E000380240FFFFF6FE63
:10260000103000240148FFF72EB9000024020020FA
:102610000148FFF728B90000640200200148FFF7D5
:1026200022B90000A40200200148FFF71CB90000F5
:10263000E4020020F0B50268254C264D264E274FB7
:10264000274B4FF0804CA04209D0604507D0A842EC
:1026500005D0B04203D0B84201D0984204D122F054
:10266000700E4A6842EA0E02A0421BD0604519D0A3
:10267000A84217D0B04215D0B84213D0984211D01A
:10268000184DA8420ED0184DA8420BD0174DA842A5
:1026900008D0174DA84205D0164DA84202D0164DBD
:1026A000A84203D122F44075CA682A434D6922F03A
:1026B00080022A4302608A68C2620A688262A0427B
:1026C00001D0984201D10969016301214161F0BD46
:1026D000000001400004004000080040000C0040E1
:1026E0000004014000400140004401400048014016
:1026F00000180040001C00400020004010B5846815
:1027000042EA032224F47F440A432243826010BD3C
:10271000826822F070020A4342F00701816070472C
:1027200010B5036A046A24F001040462846924F089
:10273000F00444EA021423F00A020A4384610262AC
:1027400010BD10B5036A23F0100303628369046AA5
:1027500023F4704343EA023224F0A00343EA011158
:102760008261016210BD10B5806B0021C185C184FA
:10277000FFF755F910BD0168CA6822F49072CA606B
:1027800001684A6922F001024A61202180F83A106A
:10279000704710B590F83A10222901D0022010BDE0
:1027A0008168B1F5805F11D00169002901681FD0EF
:1027B000496801F07F03816A4A1C82620B70C18DF7
:1027C000491E0904090CC18518D02BE00269816AF1
:1027D000002A0268526805D0D2B20A80816A491C78
:1027E0008162ECE7C2F308020A80816A891CF7E77C
:1027F0004A68816A4B1C83620A70E0E70168CA6814
:1028000022F02002CA600168CA6822F48072CA609D
:1028100001684A6922F001024A61202180F83A10D9
:10282000FFF7BEFA002010BD2DE9F0410446006814
:102830000169E26821F44051114301612169A068F6
:10284000E26908436169114308432168CA6849F293
:102850000C639A430243CA6020684169A26921F46B
:10286000407111434161E069192764253226B0F5B2
:10287000004F354A354920684FF0000806D088429D
:1028800001D0904236D1FEF799F935E0884201D067
:10289000904202D1FEF792F901E0FEF77FF96168FC
:1028A0004A18A0FB070148EB0803FDF789FC014625
:1028B000B0FBF5F00201B1FBF5F06FF018035843DF
:1028C00001EB800006EBC000B0FBF5F000F0F80073
:1028D00002EB4002B1FBF5F0584301EB800006EB40
:1028E000C000B0FBF5F000F00700216810448860DC
:1028F000BDE8F081FEF752F961688B0F8A00A0FBFA
:102900000701FDF75DFC0146B0FBF5F06FF0180222
:10291000504301EB800006EB0010B0FBF5F000F037
:10292000F002B1FBF5F002EB0012B1FBF5F06FF035
:102930001803584301EB800006EB0010B0FBF5F0E4
:1029400000F00F00D1E7000000140140001001402A
:1029500090F83910212901D0022070478168B1F523
:10296000805F016A0BD04A1C0262026809785160DC
:10297000C18C491E0904090CC1840ED017E00988D6
:102980000268C1F30801516001690029016A02D09F
:10299000491C0162ECE7891CFBE70168CA6822F068
:1029A0008002CA600068C16841F04001C160002037
:1029B00070472DE9F041984617460E460446069D9D
:1029C0001DE0681C1BD02DB1FDF7AEFFA0EB080089
:1029D000A84214D92068C16821F4D071C160206870
:1029E000416921F001014161202084F8390084F817
:1029F0003A00002084F838000320BDE8F081206808
:102A0000006836EA000004D00020B842D9D0002087
:102A1000F3E70120F9E700000148FFF707B80000DD
:102A2000240400200148FFF701B8000064040020DE
:102A3000FEE7000010B54FF480610448FDF768FF21
:102A4000BDE810404FF47A7000F029BD001002403C
:102A500070477047012210210148FDF760BF000058
:102A600000000240002210210148FDF758BF00007D
:102A70000000024010B54FF47A70FDF75BFE0A4982
:102A80000A4800F0C7FE0A490A4800F0D5FE0A4984
:102A90000A4800F0E3FE0A490A4800F0F5FEBDE8E6
:102AA000104000F011B80000532A0008512A000815
:102AB000552A0008652A0008712C0008412C0008DE
:102AC000612C0008312C000810B58CB018222A495E
:102AD00003A8FDF7A6FB03A9002000F03DFC274951
:102AE000012000F039FC24480BA9001F00680B905E
:102AF000042000F031FC2249052000F02DFC0021CB
:102B0000012000F04FFC09A9082000F04BFC09A9A6
:102B10001CA000F085F9194CE078627921798DE8E4
:102B20000700A378627821781CA000F079F9607A18
:102B30000090237AE279A17922A000F071F9607CFB
:102B40000090237CE27BA17B23A000F069F9607BED
:102B50000090237BE27AA17A24A000F061F9607DE5
:102B60000090237DE27CA17C25A000F059F929A0EA
:102B700000F056F90CB010BDA040000846660020D9
:102B8000AC0000200D0A3D3D3D202573204E4554EC
:102B900020434F4E46203D3D3D0D0A004D41433AF6
:102BA00020253032583A253032583A253032583ABA
:102BB000253032583A253032583A253032580D0AED
:102BC000000000005349503A2025642E25642E252C
:102BD000642E25640D0A00004741523A2025642ED8
:102BE00025642E25642E25640D0A00005355423AB3
:102BF0002025642E25642E25642E25640D0A0000F0
:102C0000444E533A2025642E25642E25642E2564D7
:102C10000D0A00003D3D3D3D3D3D3D3D3D3D3D3DC1
:102C20003D3D3D3D3D3D3D3D3D3D0D0A000000002B
:102C30000A46014632230148FEF77EBAB40000205E
:102C400008B500208DF800003223012269460348B0
:102C5000FEF772FA9DF8000008BD0000B4000020E5
:102C60000A46014632230148FEF70EBBB40000209D
:102C700001B53223012269460148FEF705FB08BD74
:102C8000B4000020F8B5144C0546A06880472069C0
:102C90008047216AC5F30740C5F3072699B1626AE8
:102CA0008AB18DF800008DF801608DF80250032183
:102CB00068469047A0698047054660698047E0689C
:102CC00080472846F8BDE1698847E1693046884772
:102CD000E169E8B28847EDE7840000202DE9F84378
:102CE0001A4C05461746A0688846804720698047E9
:102CF000216AC5F30740C5F30726A1B1626A92B104
:102D00008DF800008DF801608DF8025003216846AF
:102D10009047226A39464046904760698047E0689C
:102D20008047BDE8F883E1698847E1693046884714
:102D3000E169E8B28847002505E0A069804708F806
:102D400005006D1CADB2BD42F7D3E6E7840000205C
:102D5000F8B5164C05460E46A068804720698047A6
:102D6000626A45F004058AB1280C8DF80000280A33
:102D70008DF801008DF802508DF80360042168463B
:102D8000904760698047E0688047F8BDE169C5F316
:102D900007408847E169C5F307208847E169E8B241
:102DA0008847E16930468847EBE70000840000204F
:102DB000F8B51A4C05461646A0680F4680472069AC
:102DC0008047626A45F004059AB1280C8DF800002E
:102DD000280A8DF801008DF80250032168469047BB
:102DE000626A31463846904760698047E0688047AC
:102DF000F8BDE169C5F307408847E169C5F30720DD
:102E00008847E169E8B28847002504E0E169785D18
:102E100088476D1CADB2B542F8D3E5E784000020C9
:102E20000FB4054B10B503A9044A029800F028F826
:102E300010BC5DF814FB0000C9340008B00000208D
:102E40000907090E002804DB00F1E02080F80014D7
:102E5000704700F00F0000F1E02080F8141D70476B
:102E600002E008C8121F08C1002AFAD17047704753
:102E7000002001E001C1121F002AFBD170470000B1
:102E80002DE9FF4F8DB00F460546002606E02528A8
:102E90000BD0DDE90F1290476D1C761C28780028B6
:102EA000F5D111B03046BDE8F08F0024A246A1460E
:102EB0000122EC4900E0044315F8013F203B02FAEF
:102EC00003F00842F7D128782A2810D06FF02F029B
:102ED0002878A0F13001092914D80AEB8A0102EB05
:102EE000410144F0020400EB010A6D1CF0E701CF40
:102EF0005FEA000A03D544F40054CAF1000A44F022
:102F000002046D1C28782E2817D115F8010F44F003
:102F100004042A280ED06FF02F022878A0F1300187
:102F200009290AD809EB890102EB410100EB0109EB
:102F30006D1CF2E757F8049B6D1C28786C280FD0A5
:102F400006DC4C2817D068280DD06A2814D104E07C
:102F5000742810D07A280FD10DE044F400140AE050
:102F600044F4801401E044F440146978814202D1B1
:102F700004F580146D1C6D1C2A786E2A1FD00CDCA1
:102F8000632A31D004DC002A8BD0582A11D1A3E067
:102F9000642A68D0692A0CD165E0732A2ED004DC3B
:102FA0006F2A73D0702A04D19BE0752A6FD0782ADB
:102FB0006ED01046DDE90F129047761C50E1C4F345
:102FC0000250022806D0032809D0042801CF09D0D6
:102FD000066045E101CFF117C0E9006140E101CF92
:102FE00006803DE106703BE117F8040B8DF8000008
:102FF00000208DF80100EB46012003E057F804BBE8
:103000004FF0FF3061074FF0000102D40DE008F1EE
:103010000101884649450FDA8045F8DB1BF80810A6
:103020000029F4D108E008F1010188468142FADB69
:103030001BF808100029F6D1DDE90F23AAEB0800E0
:103040008146214600F036F9304400EB080604E0E2
:10305000DDE90F121BF8010B9047B8F10108F7D218
:1030600021464846F7E00A21C4F302534FF0000B13
:103070000891022B04D001CFC117032B09D00AE01D
:10308000FF1D27F00707F7E8020108E032E01FE024
:1030900020E000B2C117042B01D140B2C117031EBA
:1030A00071F1000307DA4FF0000CD0EB0C006CEB71
:1030B00001012D2302E0230504D52B238DF82430B4
:1030C000012303E0E30701D02023F7E7984658E007
:1030D0000A2110E010210EE010204FF0000B0890A4
:1030E0000CE010214FF0000B44F004044FF00809ED
:1030F000089103E008214FF0000B0891C4F302533C
:10310000022B04D001CF0021032B06D006E0FF1DC7
:1031100027F00707F7E8020103E080B2042B00D193
:10312000C0B24FF0000823072BD5702A07D0DDF876
:1031300020C08CF0100C5CEA0B0C05D00EE0402394
:103140008DF82430012308E050EA010306D0302333
:103150008DF824308DF8252002239846DDF820C014
:103160008CF0080C5CEA0B0C0BD150EA010301D186
:10317000630706D530238DF824304FF00108A9F1FC
:103180000109582A04D038A20B9208AA0A920BE02F
:103190003AA2F9E75B46089AFDF712F80B9B9B5C95
:1031A0000A9A521E0A92137050EA0102F2D10A984A
:1031B000ADEB000000F1200B600702D524F4803451
:1031C00001E04FF00109D94502DDA9EB0B0000E059
:1031D000002000EB0B0141440890AAEB010AE00338
:1031E00006D4DDE90F232146504600F063F806447B
:1031F0004FF0000908E009A911F80900DDE90F12F4
:10320000904709F10109761CC145F4DBE0030CD5B8
:10321000DDE90F232146504600F04CF8064404E057
:10322000DDE90F1230209047761C0899481E08905F
:103230000029F5DC08E00A980A990078491C0A91EF
:10324000DDE90F129047761CBBF10001ABF1010BD9
:10325000F1DC21465046DDE90F2300F019F8064461
:103260006D1C1BE609280100303132333435363706
:1032700038396162636465660000000030313233C2
:103280003435363738394142434445460000000062
:103290002DE9F041044600251E461746880404D453
:1032A00005E039462020B0476D1C641EF9D528463C
:1032B000BDE8F0812DE9F041044600251E46904608
:1032C000C80301D5302700E02027880404D505E095
:1032D00041463846B0476D1C641EF9D52846BDE806
:1032E000F081000070B50446082802D94FF0FF3085
:1032F00070BD4FF4847000EB441005461021FFF7B9
:1033000027FD2846FFF7BEFC0028FAD14FF40270D3
:1033100000EB44101F21FFF71BFD0D490120A040C9
:103320004A8882434A808A8882438A8009490020E9
:1033300021F814000649891D08554FF4427000EB2E
:1033400044142046FFF79EFC0028FAD1012070BDEE
:103350006C0000202406002010B50C4606281ED262
:10336000DFE800F003070B101418204600F054FDAE
:1033700013E0204600F0C2FC0FE02078BDE81040CA
:1033800000F076BD00F0E6FC207006E0204600F07C
:1033900081FD02E0204600F0E0FC002010BD4FF06F
:1033A000FF3010BD2DE9F0410C46002102464F1EB2
:1033B00008464FF498554FF4A056102A61D2DFE822
:1033C00002F0080B17131A1E222C3643464A574E9A
:1033D000535A00F078FD4BE014B1204604F1080187
:1033E000BDE8F04100F0CDBC208800F049FC3FE092
:1033F00000F067FC05E0208800F000FD38E000F0F8
:103400006FFC208034E02088010A2846FFF7A0FCEA
:1034100021783046FFF79CFC2AE03046FFF732FC6B
:1034200006462846FFF72EFC06EB0020E9E7164883
:1034300082782270C27862700279A2704279E2705A
:1034400080792071617113E000F0B6FD10E0204634
:1034500000F0C7FD0CE0204600F06FFD08E020788A
:10346000BDE8F04100F0E2BD00F099FD05E02070FC
:103470000020BDE8F08100F087FDC0B241B2491CD8
:10348000F5D13846F5E70000840000204FF0E02039
:10349000016941F004010161A721416170474FF4C6
:1034A0007A7148434FF0E0210A6942F001020A6153
:1034B00002E00A69D203FCD5401EFAD2086920F066
:1034C000010008617047000013B54FF6FF73012239
:1034D00069460248FEF7BCFC00981CBD240400208D
:1034E0002DE9F04142F2086101EB401542F208710A
:1034F000002601EB40142846FFF7C4FB0746204690
:10350000FFF7C0FB00EB072007043F0C09D028465B
:10351000FFF7B8FB06462046FFF7B4FB00EB06209A
:1035200086B2BE42E7D13046BDE8F0812DE9F041D8
:1035300042F2080101EB401542F20811002601EBAE
:1035400040142846FFF79EFB07462046FFF79AFBEC
:1035500000EB072007043F0C09D02846FFF792FB39
:1035600006462046FFF78EFB00EB062086B2BE42E1
:10357000E7D13046BDE8F081FDF7E4F9FEF7D4FF6E
:10358000FFF784FFFEF70AFDFEF7C2FCFEF7EAFE36
:10359000FEF7C0FDFEF7E0FDFEF700FEFEF730FE91
:1035A000FEF760FEFEF790FEFEF7C0FE0E48FEF747
:1035B000DDF80E48FEF7DAF80D48FEF7D7F80D48AB
:1035C000FEF7D4F801220C490C48FEF7BFFB082097
:1035D000FEF7E8FEFFF74EFAFCF778FEFCF792FEE6
:1035E000FFF728FAFAE70000240200206402002016
:1035F000A4020020E402002059000020240400203E
:103600002DE9FF4F002583B01F4690460446082849
:1036100003D9681E07B0BDE8F08F60014FF0010AC2
:103620000830FFF72FFB834600F00F00022806D07A
:10363000032804D0042802D06FF00400EAE7B8F1B0
:10364000000F05D0DFF8C49139F8140018B11EE05E
:103650006FF00D00DEE74FF4427000EB44160AFAFB
:1036600004FA2046FFF73CFF05463046FFF70AFB09
:1036700030B1674949881AEA010F06D01DB106E04A
:103680006FF00300C6E70020C4E7002DE9D00BF07F
:103690000701DFF87CA14FF484704FF0800B0AF132
:1036A000060A00EB4416022922D003297CD0042903
:1036B00052D02946204600F08DFA29F814503046A1
:1036C0004021FFF745FB3046FFF7DCFA0028FAD12E
:1036D00039F81410491B0904090C29F8141003D0F7
:1036E0001AF8041041F001010AF80410284691E785
:1036F00039F814004D4670BB08226946204600F098
:1037000039FA30464021FFF723FB3046FFF7BAFA7B
:103710000028FAD19DF8000038709DF801007870FB
:103720009DF80200B8709DF80300F87010999DF89C
:10373000040008809DF8051001EB00201099088016
:103740009DF806009DF807105BE02A462046049984
:1037500000F010FAB3E72AE039F814004D4630BB08
:1037600002226946204600F005FA30464021FFF764
:10377000EFFA3046FFF786FA0028FAD19DF80000EC
:103780009DF801106FF0010202EB0020084480B2A6
:1037900040F2EA5125F81400884206D92046FFF786
:1037A000A1FD6FF47A7035E702E00AF804B003E097
:1037B00039F814004D4630B135F8145040464545AF
:1037C000C3D90546C1E706226946204600F0D2F972
:1037D00030464021FFF7BCFA3046FFF753FA002885
:1037E000FAD19DF8000038709DF8010078709DF8BE
:1037F0000200B8709DF80300F8709DF804009DF871
:10380000051001EB002025F81400CEE72406002067
:103810006C000020054A18B111B1C2E902017047DD
:10382000034890600348D060704700008400002087
:10383000BB3C0008BD3C0008054A18B111B1C2E903
:10384000040170470348106103485061704700004D
:1038500084000020C13C0008BF3C0008074A10B5A6
:1038600013889C05FDD518B111B1C2E9060110BD40
:10387000034890610348D06110BD0000840000201F
:10388000BF3E0008C53E0008074A10B513889C05D6
:10389000FDD518B111B1C2E9080110BD034810628D
:1038A0000348506210BD000084000020BD3E0008A7
:1038B000C33E00082DE9F0471E46DDF8208015467E
:1038C0008A460446082803D94FF0FF30BDE8F08748
:1038D000670108374FF001093846FFF7D3F900F0C8
:1038E0000F00022806D0032804D0042802D06FF06D
:1038F0000400EBE75DB13078717801EB0020B1781E
:1039000001EB0020F17811EB002003D00AE06FF00A
:103910000D00DBE73846FFF7B5F9400702D46FF03A
:103920000B00D3E7B8F1000F07D13846FFF7AAF92B
:10393000400702D46FF00A00C8E74FF4427000EB72
:1039400044100746FFF79EF9422806D0222804D0EB
:10395000322802D06FF00600B8E740F6084000EBCE
:10396000441004223146FFF723FA41F208004FEADF
:10397000182100EB4410FFF7EBF941F2081008F0B2
:10398000FF0100EB4410FFF7E3F941F6087000EB8C
:103990004410FFF777F94FF6FF7101EA8020854266
:1039A00000D90546DFF8888009FA04F62046FFF7BB
:1039B000BDFD81463846FFF765F938B1B8F8020019
:1039C000064206D04D4504D900207FE76FF0030082
:1039D0007CE74D45EAD82A465146204600F01BF9BF
:1039E0004FF4847000EB441006462021FFF7B0F935
:1039F0004FF4027000EB44143046FFF743F90028FF
:103A0000FAD12046FFF73EF900F01F00C10605D5A8
:103A100020461021FFF79CF9284657E70007F0D50C
:103A200020460821FFF794F96FF00C004EE70000E4
:103A30006C0000202DE9F8431D4617460E4604464B
:103A4000082803D94FF0FF30BDE8F883012E08D0D5
:103A5000022E0ED0032E0CD0042E0AD06FF00400DC
:103A6000F2E7042269464FF47060FFF737F90098D7
:103A700048B169076FF00500E6D49DB1012E05D06D
:103A8000022E0FD106E06FF00200DDE715F0210FE6
:103A9000DAD007E0A90601D52906D5D5E90601D572
:103AA0002906D1D52046FFF71DFC600105F0F00185
:103AB0004FF0010831430830FFF74AF9224E57B959
:103AC0003788781C80B2A0F57F413080F03902D170
:103AD0004FF4404030804FF48160390A00EB4410CD
:103AE000FFF736F94FF4A160F9B200EB4410FFF78D
:103AF0002FF94FF4847000EB441007460121FFF7C3
:103B000027F93846FFF7BEF80028FAD108FA04F082
:103B1000718805F001028143A2400A437280B18896
:103B20008143B1800949002021F814000649891D0C
:103B300008554FF4427000EB44152846FFF7A2F8F1
:103B40000028FAD060B27FE76C0000202406002035
:103B50003038002100EB80004000054A40B200BF31
:103B600002F81100491CC9B20429F9D370470000BA
:103B7000000000202DE9F0475FEA0208894606466A
:103B800026D042F6081000EB46152846FFF77AF8D3
:103B9000074642F6080000EB46142046FFF772F88D
:103BA00007EB002087B2380200EB46104246494638
:103BB0001830FFF793F807EB080086B2310A204669
:103BC000FFF7C6F8F1B22846BDE8F047FFF7C0B8E6
:103BD000BDE8F0872DE9F041044642F6081000EBFD
:103BE00044150E462846FFF74DF8074642F60800F2
:103BF00000EB44142046FFF745F807EB0020304463
:103C000086B2310A2046FFF7A3F8F1B22846BDE894
:103C1000F041FFF79DB82DE9F0475FEA02088946B9
:103C2000064626D042F2085000EB46152846FFF71C
:103C300029F8074642F2084000EB46142046FFF7F9
:103C400021F807EB002087B2380200EB461042460D
:103C500049461030FFF7ACF807EB080086B2310A8E
:103C60002046FFF775F8F1B22846BDE8F047FFF7A8
:103C70006FB8BDE8F08700787047017070470000AA
:103C80002DE9F041050A00F0F0014FF4A850FFF7CC
:103C90005FF8002401264FF4027700BF06FA04F013
:103CA000284204D007EB44101F21FFF751F8641C91
:103CB000E4B2082CF2D3BDE8F0817047704770473A
:103CC000704710B54FF4A850FEF7DCFF00F0F00489
:103CD0004FF4B850FEF7D6FF04EB002080B210BDC1
:103CE00010B54FF4B050FEF7CDFF04464FF4C0506E
:103CF000FEF7C8FF04EB002080B210BD10B50446EB
:103D0000014606224FF41060FEF7E8FF042204F19A
:103D10000E019001FEF7E2FF042204F10A014FF4C4
:103D2000A060FEF7DBFF0422A11D4FF47060FEF7D8
:103D3000D5FF07480178A1744178E1748178217535
:103D4000C07860750248401E0078A07510BD000064
:103D50007D0000200020FEF795BF70B504464FF4AB
:103D6000D850FEF78FFF20704FF4D050FEF78AFF37
:103D700005464FF4C850FEF785FF05EB0020608034
:103D800070BD2DE9F0410D460646002400F09BF879
:103D90004FF0FF38AEB10022B05C204444B2102C8A
:103DA00017DC521C52B2082AF6DB002441F60877D1
:103DB000315D07EB4410FEF7CBFF641C64B2082CA6
:103DC000F6DBCDB1002108462A5C114449B2102926
:103DD00002DD4046BDE8F081401C40B20828F3DB1C
:103DE000002441F60866295D06EB4410FEF7B0FF9B
:103DF000641C64B2082CF6DB0020EBE710B5C1B2FE
:103E0000040A4FF4B050FEF7A3FF2146BDE810406E
:103E10004FF4C050FEF79CBF10B504460146062281
:103E20004FF41060FEF7C4FF042204F10E0190016C
:103E3000FEF7BEFF042204F10A014FF4A060FEF772
:103E4000B7FF0422A11D4FF47060FEF7B1FF0748D1
:103E5000A17C0170E17C4170217D8170617DC17028
:103E60000249A07D491E087010BD00007D000020A1
:103E700010B5044630F03A0002D04FF0FF3010BDCC
:103E80000020FEF7FFFE40EA04010020FEF760FF7D
:103E9000002010BD10B5044601784FF4D850FEF74D
:103EA00057FF6088010A4FF4C850FEF751FFA17810
:103EB000BDE810404FF4D050FEF74ABF70470020D5
:103EC000704770477047F0B585B04FF41064062214
:103ED00069462046FEF702FF0422950102A9284602
:103EE000FEF7FCFE4FF4A066042203A93046FEF75D
:103EF000F5FE4FF47067042204A93846FEF7EEFE83
:103F000080210020FEF724FF0020FEF7BBFE0622E2
:103F100069462046FEF74CFF042202A92846FEF718
:103F200047FF042203A93046FEF742FF042204A9FA
:103F30003846FEF73DFF05B0F0BD10B504464FF41E
:103F40003850FEF79FFEC0F38011217000F038005A
:103F500001220021202811D038280FD061701028AC
:103F60000ED018280CD020280AD0A170082809D01B
:103F7000182807D0202805D0E17010BD6270EEE748
:103F8000A270F3E7E27010BD10B500244FF4385072
:103F9000FEF778FEC00700D00124204610BD10B502
:103FA00000244FF43850FEF76DFEC0F3C20006281F
:103FB00000D10124204610BD10B54FF438542046DE
:103FC000FEF760FE20F080012046FEF7C1FE20468D
:103FD000FEF758FE40F080012046BDE81040FEF795
:103FE000B7BE10B502780021012A00D140214278E5
:103FF000012A06D0C2788078012A05D001280BD08A
:104000000CE041F0380109E0012802D041F008013C
:1040100004E041F0180101E041F010014FF4385084
:10402000FEF796FEBDE81040FFF7C6BF70B5044628
:104030004FF438563046FEF725FE41064FF0FF3567
:104040001AD520F03800012C10D040F0380130464D
:10405000FEF77EFEFFF7B0FF3046FEF713FE012CA1
:1040600007D000F0380038B1002070BD40F03001BA
:10407000EDE700F03000F6E7284670BD00061016A8
:1040800000061016000000000000000001020304FA
:104090000607080900000000010203040A0064008A
:1040A000101FDE124230C0A8011FFFFFFF00C0A892
:1040B0000101080808080100D8400008000000209D
:1040C000B4000000602E00088C410008B4000020FD
:1040D000AC690000702E0008000000000000000025
:1040E0002402002000180240001000000000000020
:1040F00000000000640200200018024000200000C0
:104100000000000000000000A4020020001802408F
:10411000004000000000000000000000E402002059
:1041200000180240008000000000000000000000B5
:10413000000000000100000010000000000000006E
:104140000024F40000C00000000000000000000097
:1041500000000000000000000000000001025735D0
:1041600035303000BB3C0008BD3C0008C13C0008B5
:10417000BF3C0008773C00087B3C000800000000C2
:0C41800000000000000000000000000033
:040000050800018965
:00000001FF
